:107800005CC000008FC0000073C0000071C00000A9
:107810006FC000006DC000006BC0000069C00000B8
:1078200067C0000065C0000063C0000061C00000C8
:107830005FC000005DC000005BC0000059C00000D8
:1078400057C0000055C0000053C0000051C00000E8
:107850004FC000004DC000004BC0000049C00000F8
:1078600047C0000045C0000009021200010100806D
:107870003209040000000000000012011001FF00A6
:107880000008C016DC050201010200010E035500CC
:10789000530042006100730070001C037700770002
:1078A00077002E00660069007300630068006C00BA
:1078B0002E00640065000403090411241FBECFEFED
:1078C000D8E0DEBFCDBF11E0A0E0B1E0E4EBFFE720
:1078D00002C005900D92A630B107D9F711E0A6E0DD
:1078E000B1E001C01D92AD33B107E1F73CD160C3F7
:1078F00087CFA82FB92F80E090E041E050EA609553
:1079000030E009C02D9182279795879510F0842744
:107910009527305EC8F36F5FA8F30895EADF8D9373
:107920009D930895CF93CFB7CF93DF93C3954C9B8F
:10793000E9F74C9B0BC04C9B09C04C9B07C04C9B70
:1079400005C04C9B03C04C9B01C089C06F93C09184
:107950002001DD27C95DDE4F2F9365E54C9B03C0F9
:107960002F916F91E6CF0F931F934F9320E040E14B
:107970005F9309B1047104FB27F93F9350E03BE0AA
:1079800039C0147140642F77012F5F5F1EC04068BB
:1079900019B114712F7752501FC0406409B12F776D
:1079A0000471D1F15F5F00C023C0406219B12F772D
:1079B000147191F15F5F00C025C004711027515010
:1079C00012F45D5F0000115027952C3F19B1C8F6E5
:1079D00014710127015027952C3FC8F6422749937F
:1079E00009B1047110274F73115027952C3FA8F649
:1079F0004695469519B1147179F0012701502795E4
:107A00002C3F98F66B5A60F3315009B1B0F600C0C4
:107A100011E01CBB002717C03B503195C31BD04061
:107A200011E01CBB0881033CF9F00B34E9F0209114
:107A30001E011981110F1213EDCF093651F10D32CC
:107A400011F0013E39F7009325013F915F914F916D
:107A50001F910F912F916F91CCB3C0FD67CFDF9134
:107A6000CF91CFBFCF91189520912501222369F3A3
:107A700010912301112339F534303AF13093230169
:107A800020931F01109120013BE0311B3093200116
:107A90001CC0009123010130B4F40AE530910101CA
:107AA00034FD14C000930101C3E1D1E013C00527E8
:107AB00010E000C000000BB91AC0052710E0221F1B
:107AC0001DC010E021C04AE502C032ED432FC4E1E1
:107AD000D0E032E01AB114615C9A0BB11AB954E1EA
:107AE00020E865E320FF05270BB9279517951C3F74
:107AF000F0F66695B8F7B1F720FF05270BB9279583
:107B000017951C3FD0F62795179517FF05270000FE
:107B10001C3F0BB9B0F629913A9519F70B7E1091DD
:107B20002401110FC651D0400BB911F010931E0162
:107B300011E01CBB00611AB11B7E402F4B7E54E04C
:107B40005A95F1F70BB91AB94BB97FCF1BB8F89416
:107B50001DBA1092690081E085BF15BEE0910A014F
:107B6000F0910B01099588E10FB6F89480936000BD
:107B7000109260000FBE5F9A04B601FEE7DF14BEEC
:107B800081E085BF82E085BF80916900826080933B
:107B90006900E89A549A80E0815041F0A895EFE995
:107BA000FFE03197F1F700C00000F6CF54987894C9
:107BB000F12CE12C80912301835087FD5DC19091D0
:107BC0002001CCE0D0E0C91BD109C95DDE4F909106
:107BD0001F019D3209F0C6C0883009F04BC183EC0B
:107BE000809313018AE5809301011092120148816C
:107BF000842F80763981882309F443C086E091E0A0
:107C000090932201809321013330C9F49B818C81B0
:107C10002A81203339F48370E82FF0E0EE5FFE4FC5
:107C2000808109C0203A11F4ADD105C0203C11F487
:107C30006D81B0D180E08093090124E089C03530A6
:107C4000F1F08CEF830F863098F48A819B819093BA
:107C5000100180930F01393081F08E8180930E01E5
:107C60008D81827080930D0130930C012FEF6AC0DB
:107C7000323019F481E08093110120E069C021E0E5
:107C800067C08A8110921C01311106C010921D013B
:107C90008CE191E022E050C0353019F4809324014A
:107CA0003DC03630A9F59B81913019F48AE798E7F9
:107CB00004C0923041F488E698E7909322018093C3
:107CC000210122E121C09330F1F4811108C086EB3B
:107CD00098E7909322018093210124E015C0813020
:107CE00041F48AE998E790932201809321012CE1E5
:107CF0000BC0823041F48CE898E790932201809386
:107D000021012EE001C020E080E48093120118C020
:107D1000383079F0393031F4809326018CE191E0EC
:107D200020E00AC021E03A3009F020E08CE191E047
:107D300003C086E291E021E090932201809321012B
:107D40002F3F31F447FD2E8180E88093120107C058
:107D50008F81811104C08E81821708F4282F20930F
:107D6000000188C09091120197FF84C090910E018C
:107D7000D82E981708F4D92E9D1990930E01CC2473
:107D8000C3949111C12C80910C01873010F4DE0155
:107D90003DC0BC2E0C2F1D2F802F8B198D1508F088
:107DA00039C0F80161918F0180910F01909110010C
:107DB0009C012F5F3F4F3093100120930F01EAD0B9
:107DC000EBCF80910F01909110018F779927892B2C
:107DD00031F1F894E0910F01F09110018D919D9196
:107DE00021E00C0120935700E895112478948091AC
:107DF0000F019091100102969093100180930F0152
:107E00008F779927892B09F1C11017C08A2F8C1BF6
:107E10008D15B8F2CC2071F1109200012BC0F894AE
:107E2000E0910F01F091100183E080935700E895F5
:107E3000789407B600FCFDCFCCCF8A2F8C1B8D1514
:107E400028F380910D01882309F3F894E0910F0144
:107E5000F0911001329785E080935700E89578946F
:107E600007B600FCFDCFF89481E180935700E895B8
:107E70007894CCCF109223018091010184FF6CC0D3
:107E8000809100018F3F09F467C0D82E893010F02F
:107E900098E0D92E8D19809300018091130198E804
:107EA000892780931301DD2009F449C080911201D4
:107EB00087FF27C080910E018D1508F4D82E8D19EB
:107EC00080930E01C0900C01C4E1D1E084E191E007
:107ED000FC2FF81BFD1598F500910F011091100172
:107EE00086E08C1518F4C8014DD002C0F8018491C9
:107EF000888321960F5F1F4F1093100100930F018D
:107F0000E5CFE0912101F091220186FF0BC084E1D1
:107F100091E0DC0124912D9331962D2D280F2A1309
:107F2000F9CF09C084E191E0DC0121912D932D2D41
:107F3000280F2A13FACFF0932201E09321016D2D2F
:107F400084E191E0EBDC84E08D0D8C3019F09FEF43
:107F5000909300018093010184E199B1947131F40F
:107F60008150D9F71092240110921E0180911101C5
:107F7000882309F41FCEEA9409F01CCEFA9409F084
:107F800019CEFCCDF999FECF92BD81BDF89A992703
:107F900080B50895262FF999FECF1FBA92BD81BDF5
:107FA00020BD0FB6F894FA9AF99A0FBE019608957B
:047FB000F894FFCF73
:067FB400FF5A1E950F00AC
:040000030000780081
:00000001FF
